{
  "contractName": "SalesContract",
  "abi": [
    {
      "anonymous": false,
      "inputs": [
        {
          "indexed": false,
          "internalType": "string",
          "name": "_msg",
          "type": "string"
        },
        {
          "indexed": false,
          "internalType": "address",
          "name": "usuario",
          "type": "address"
        },
        {
          "indexed": false,
          "internalType": "uint256",
          "name": "costo",
          "type": "uint256"
        },
        {
          "indexed": false,
          "internalType": "uint256",
          "name": "tiempo",
          "type": "uint256"
        }
      ],
      "name": "abortar",
      "type": "event"
    },
    {
      "anonymous": false,
      "inputs": [
        {
          "indexed": false,
          "internalType": "string",
          "name": "_msg",
          "type": "string"
        },
        {
          "indexed": false,
          "internalType": "address",
          "name": "usuario",
          "type": "address"
        },
        {
          "indexed": false,
          "internalType": "uint256",
          "name": "costo",
          "type": "uint256"
        },
        {
          "indexed": false,
          "internalType": "uint256",
          "name": "tiempo",
          "type": "uint256"
        }
      ],
      "name": "estado",
      "type": "event"
    },
    {
      "inputs": [],
      "name": "costo",
      "outputs": [
        {
          "internalType": "uint256",
          "name": "",
          "type": "uint256"
        }
      ],
      "stateMutability": "view",
      "type": "function",
      "constant": true
    },
    {
      "inputs": [],
      "name": "enVenta",
      "outputs": [
        {
          "internalType": "bool",
          "name": "",
          "type": "bool"
        }
      ],
      "stateMutability": "view",
      "type": "function",
      "constant": true
    },
    {
      "inputs": [],
      "name": "nombreProducto",
      "outputs": [
        {
          "internalType": "string",
          "name": "",
          "type": "string"
        }
      ],
      "stateMutability": "view",
      "type": "function",
      "constant": true
    },
    {
      "inputs": [],
      "name": "tiempoActualizar",
      "outputs": [
        {
          "internalType": "uint256",
          "name": "",
          "type": "uint256"
        }
      ],
      "stateMutability": "view",
      "type": "function",
      "constant": true
    },
    {
      "inputs": [
        {
          "internalType": "string",
          "name": "_nombreProducto",
          "type": "string"
        },
        {
          "internalType": "uint256",
          "name": "_costo",
          "type": "uint256"
        }
      ],
      "name": "comprar",
      "outputs": [],
      "stateMutability": "nonpayable",
      "type": "function"
    },
    {
      "inputs": [
        {
          "internalType": "uint256",
          "name": "_costo",
          "type": "uint256"
        }
      ],
      "name": "actualizarCosto",
      "outputs": [],
      "stateMutability": "nonpayable",
      "type": "function"
    },
    {
      "inputs": [
        {
          "internalType": "string",
          "name": "description",
          "type": "string"
        }
      ],
      "name": "modificarDescription",
      "outputs": [],
      "stateMutability": "nonpayable",
      "type": "function"
    },
    {
      "inputs": [
        {
          "internalType": "uint256",
          "name": "coste",
          "type": "uint256"
        }
      ],
      "name": "abortarCompra",
      "outputs": [],
      "stateMutability": "payable",
      "type": "function",
      "payable": true
    },
    {
      "inputs": [],
      "name": "ponerVenta",
      "outputs": [],
      "stateMutability": "nonpayable",
      "type": "function"
    },
    {
      "inputs": [],
      "name": "quitarVenta",
      "outputs": [],
      "stateMutability": "nonpayable",
      "type": "function"
    }
  ],
  "bytecode": "0x60806040526001600460006101000a81548160ff02191690831515021790555034801561002b57600080fd5b506110bc8061003b6000396000f3fe6080604052600436106100915760003560e01c80639eea924e116100595780639eea924e14610146578063c223297a14610171578063c88fec331461019c578063ca320f65146101c7578063e84a8093146101de57610091565b80631c6b63e414610096578063599116a5146100ad578063791a2624146100d65780638c714af9146100f25780639de622ed1461011d575b600080fd5b3480156100a257600080fd5b506100ab610207565b005b3480156100b957600080fd5b506100d460048036038101906100cf91906108a0565b6102bf565b005b6100f060048036038101906100eb9190610945565b6103b2565b005b3480156100fe57600080fd5b50610107610421565b6040516101149190610af7565b60405180910390f35b34801561012957600080fd5b50610144600480360381019061013f91906108e9565b6104af565b005b34801561015257600080fd5b5061015b6105fb565b6040516101689190610d41565b60405180910390f35b34801561017d57600080fd5b50610186610601565b6040516101939190610d41565b60405180910390f35b3480156101a857600080fd5b506101b1610607565b6040516101be9190610adc565b60405180910390f35b3480156101d357600080fd5b506101dc61061a565b005b3480156101ea57600080fd5b5061020560048036038101906102009190610945565b6106d2565b005b4260018190555060008054906101000a900473ffffffffffffffffffffffffffffffffffffffff1673ffffffffffffffffffffffffffffffffffffffff163373ffffffffffffffffffffffffffffffffffffffff161461026657600080fd5b6001600460006101000a81548160ff0219169083151502179055507fdb4f8eddf947872b1b605c897cd1a438ca58848db003fbebd9432e9e75dd6a16336000426040516102b593929190610cad565b60405180910390a1565b4260018190555060008054906101000a900473ffffffffffffffffffffffffffffffffffffffff1673ffffffffffffffffffffffffffffffffffffffff163373ffffffffffffffffffffffffffffffffffffffff161461031e57600080fd5b8060029080519060200190610334929190610778565b507fdb4f8eddf947872b1b605c897cd1a438ca58848db003fbebd9432e9e75dd6a16813360004260405161036b9493929190610b19565b60405180910390a17fdb4f8eddf947872b1b605c897cd1a438ca58848db003fbebd9432e9e75dd6a16336000426040516103a793929190610b65565b60405180910390a150565b4260018190555060008054906101000a900473ffffffffffffffffffffffffffffffffffffffff1673ffffffffffffffffffffffffffffffffffffffff163373ffffffffffffffffffffffffffffffffffffffff161461041157600080fd5b8034101561041e57600080fd5b50565b6002805461042e90610e6a565b80601f016020809104026020016040519081016040528092919081815260200182805461045a90610e6a565b80156104a75780601f1061047c576101008083540402835291602001916104a7565b820191906000526020600020905b81548152906001019060200180831161048a57829003601f168201915b505050505081565b600081116104f2576040517f08c379a00000000000000000000000000000000000000000000000000000000081526004016104e990610baf565b60405180910390fd5b60011515600460009054906101000a900460ff16151514156105ae578160029080519060200190610524929190610778565b5080600381905550336000806101000a81548173ffffffffffffffffffffffffffffffffffffffff021916908373ffffffffffffffffffffffffffffffffffffffff1602179055507fdb4f8eddf947872b1b605c897cd1a438ca58848db003fbebd9432e9e75dd6a1633600354426040516105a193929190610c19565b60405180910390a16105f0565b7fdb4f8eddf947872b1b605c897cd1a438ca58848db003fbebd9432e9e75dd6a1633600354426040516105e393929190610c63565b60405180910390a1600080fd5b426001819055505050565b60015481565b60035481565b600460009054906101000a900460ff1681565b4260018190555060008054906101000a900473ffffffffffffffffffffffffffffffffffffffff1673ffffffffffffffffffffffffffffffffffffffff163373ffffffffffffffffffffffffffffffffffffffff161461067957600080fd5b6001600460006101000a81548160ff0219169083151502179055507fdb4f8eddf947872b1b605c897cd1a438ca58848db003fbebd9432e9e75dd6a16336000426040516106c893929190610cf7565b60405180910390a1565b4260018190555060008054906101000a900473ffffffffffffffffffffffffffffffffffffffff1673ffffffffffffffffffffffffffffffffffffffff163373ffffffffffffffffffffffffffffffffffffffff161461073157600080fd5b806003819055507fdb4f8eddf947872b1b605c897cd1a438ca58848db003fbebd9432e9e75dd6a16336003544260405161076d93929190610bcf565b60405180910390a150565b82805461078490610e6a565b90600052602060002090601f0160209004810192826107a657600085556107ed565b82601f106107bf57805160ff19168380011785556107ed565b828001600101855582156107ed579182015b828111156107ec5782518255916020019190600101906107d1565b5b5090506107fa91906107fe565b5090565b5b808211156108175760008160009055506001016107ff565b5090565b600061082e61082984610d81565b610d5c565b90508281526020810184848401111561084a57610849610f30565b5b610855848285610e28565b509392505050565b600082601f83011261087257610871610f2b565b5b813561088284826020860161081b565b91505092915050565b60008135905061089a8161106f565b92915050565b6000602082840312156108b6576108b5610f3a565b5b600082013567ffffffffffffffff8111156108d4576108d3610f35565b5b6108e08482850161085d565b91505092915050565b60008060408385031215610900576108ff610f3a565b5b600083013567ffffffffffffffff81111561091e5761091d610f35565b5b61092a8582860161085d565b925050602061093b8582860161088b565b9150509250929050565b60006020828403121561095b5761095a610f3a565b5b60006109698482850161088b565b91505092915050565b61097b81610dce565b82525050565b61098a81610de0565b82525050565b61099981610e16565b82525050565b60006109aa82610db2565b6109b48185610dbd565b93506109c4818560208601610e37565b6109cd81610f3f565b840191505092915050565b60006109e5601b83610dbd565b91506109f082610f50565b602082019050919050565b6000610a08601983610dbd565b9150610a1382610f79565b602082019050919050565b6000610a2b601783610dbd565b9150610a3682610fa2565b602082019050919050565b6000610a4e601183610dbd565b9150610a5982610fcb565b602082019050919050565b6000610a71601683610dbd565b9150610a7c82610ff4565b602082019050919050565b6000610a94601383610dbd565b9150610a9f8261101d565b602082019050919050565b6000610ab7601483610dbd565b9150610ac282611046565b602082019050919050565b610ad681610e0c565b82525050565b6000602082019050610af16000830184610981565b92915050565b60006020820190508181036000830152610b11818461099f565b905092915050565b60006080820190508181036000830152610b33818761099f565b9050610b426020830186610972565b610b4f6040830185610990565b610b5c6060830184610acd565b95945050505050565b60006080820190508181036000830152610b7e816109d8565b9050610b8d6020830186610972565b610b9a6040830185610990565b610ba76060830184610acd565b949350505050565b60006020820190508181036000830152610bc8816109fb565b9050919050565b60006080820190508181036000830152610be881610a1e565b9050610bf76020830186610972565b610c046040830185610acd565b610c116060830184610acd565b949350505050565b60006080820190508181036000830152610c3281610a41565b9050610c416020830186610972565b610c4e6040830185610acd565b610c5b6060830184610acd565b949350505050565b60006080820190508181036000830152610c7c81610a64565b9050610c8b6020830186610972565b610c986040830185610acd565b610ca56060830184610acd565b949350505050565b60006080820190508181036000830152610cc681610a87565b9050610cd56020830186610972565b610ce26040830185610990565b610cef6060830184610acd565b949350505050565b60006080820190508181036000830152610d1081610aaa565b9050610d1f6020830186610972565b610d2c6040830185610990565b610d396060830184610acd565b949350505050565b6000602082019050610d566000830184610acd565b92915050565b6000610d66610d77565b9050610d728282610e9c565b919050565b6000604051905090565b600067ffffffffffffffff821115610d9c57610d9b610efc565b5b610da582610f3f565b9050602081019050919050565b600081519050919050565b600082825260208201905092915050565b6000610dd982610dec565b9050919050565b60008115159050919050565b600073ffffffffffffffffffffffffffffffffffffffff82169050919050565b6000819050919050565b6000610e2182610e0c565b9050919050565b82818337600083830152505050565b60005b83811015610e55578082015181840152602081019050610e3a565b83811115610e64576000848401525b50505050565b60006002820490506001821680610e8257607f821691505b60208210811415610e9657610e95610ecd565b5b50919050565b610ea582610f3f565b810181811067ffffffffffffffff82111715610ec457610ec3610efc565b5b80604052505050565b7f4e487b7100000000000000000000000000000000000000000000000000000000600052602260045260246000fd5b7f4e487b7100000000000000000000000000000000000000000000000000000000600052604160045260246000fd5b600080fd5b600080fd5b600080fd5b600080fd5b6000601f19601f8301169050919050565b7f4d6f64696669636163696f6e206465206465736372697063696f6e0000000000600082015250565b7f456c206d6f6e746f206465626520736572206d61796f72203000000000000000600082015250565b7f41637475616c697a6163696f6e2064656c20636f73746f000000000000000000600082015250565b7f50726f647563746f20656e2076656e7461000000000000000000000000000000600082015250565b7f50726f647563746f206e6f2061206c612076656e746100000000000000000000600082015250565b7f50726f647563746f2061206c612076656e746100000000000000000000000000600082015250565b7f50726f647563746f206e6f20656e2076656e7461000000000000000000000000600082015250565b61107881610e0c565b811461108357600080fd5b5056fea2646970667358221220a6236fa73ae8b2666b959bc72993216ad406886a4259509b4331e1339c817de364736f6c63430008060033",
  "immutableReferences": {},
  "source": "//SPDX-License-Identifier: MIT\npragma solidity ^0.8.6;\n\n//Caracteristicas del contrato\ncontract SalesContract{\n    address payable propietario;\n    uint256 public tiempoActualizar;\n    string public nombreProducto;\n    uint public costo;\n    bool public enVenta = true;\n\n    //Evento que mostrar el estado de la compra\n    event estado(string _msg, address usuario, uint costo, uint tiempo);\n    event abortar(string _msg, address usuario, uint costo, uint tiempo);\n\n    //Contiene todas las caracteristicas de la compra\n    function comprar(string memory _nombreProducto, uint256 _costo) public {\n        require(_costo > 0, \"El monto debe ser mayor 0\");\n        if (enVenta == true) {\n            //propietario.transfer address(this).balance;\n            // enVenta = false;\n            nombreProducto = _nombreProducto;\n            costo = _costo;\n            propietario = payable(msg.sender);\n            //Estado de la compra   \n            emit estado(\"Producto en venta\", msg.sender, costo, block.timestamp);\n        } else {\n            emit estado(\"Producto no a la venta\", msg.sender, costo, block.timestamp);\n            //Si no aplica se revierte la compra\n            revert();\n        }\n        tiempoActualizar = block.timestamp;\n    }\n    //Propietario tiene potestad de actualizar el costo del producto\n    function actualizarCosto(uint _costo) public unicoPropietario {\n        costo = _costo;\n        //Estado de la actualizacin\n        emit estado(\"Actualizacion del costo\", msg.sender, costo, block.timestamp);\n    }\n    //Propietario tiene potestad de actualizar la descripcin del producto\n    function modificarDescription(string memory description) public unicoPropietario {\n        nombreProducto = description;\n        //Estado de la actualizacin\n        emit estado(description, msg.sender, 0, block.timestamp);\n        emit estado(\"Modificacion de descripcion\", msg.sender, 0, block.timestamp);\n    }\n    function abortarCompra(uint coste) payable public unicoPropietario {\n        if(msg.value < coste){\n            revert();\n        }\n    }\n    //Asignar un producto a la venta\n    function ponerVenta() public unicoPropietario {\n        enVenta = true;\n        emit estado(\"Producto a la venta\", msg.sender, 0, block.timestamp);\n    }\n\n    //Abortar un producto de la venta\n    function quitarVenta() public unicoPropietario {\n        enVenta = true;\n        emit estado(\"Producto no en venta\", msg.sender, 0, block.timestamp);\n        //propietario.transfer(address(this).balance);\n    }\n    //Modifica el comportamiento de una funcin\n    modifier unicoPropietario {\n        tiempoActualizar = block.timestamp;\n        if (msg.sender != propietario) {\n            revert();\n        } else {\n            _;\n        }\n    }\n}",
  "sourcePath": "C:\\Users\\Gersson\\Documents\\Asignaturas\\FUNDAMENTACIN ESPECFICA\\Seminario para la certificacin\\Semana 8\\Clase 23\\Taller_2_SCERT-master\\contracts\\SalesContract.sol",
  "compiler": {
    "name": "solc",
    "version": "0.8.6+commit.11564f7e.Emscripten.clang"
  },
  "schemaVersion": "3.4.10",
  "updatedAt": "2022-12-01T07:53:46.632Z",
  "networkType": "ethereum",
  "devdoc": {
    "kind": "dev",
    "methods": {},
    "version": 1
  },
  "userdoc": {
    "kind": "user",
    "methods": {},
    "version": 1
  }
}